{
  "contractName": "Whitelist",
  "abi": [
    {
      "anonymous": false,
      "inputs": [
        {
          "indexed": true,
          "internalType": "address",
          "name": "previousOwner",
          "type": "address"
        },
        {
          "indexed": true,
          "internalType": "address",
          "name": "newOwner",
          "type": "address"
        }
      ],
      "name": "OwnershipTransferred",
      "type": "event"
    },
    {
      "inputs": [],
      "name": "owner",
      "outputs": [
        {
          "internalType": "address",
          "name": "",
          "type": "address"
        }
      ],
      "stateMutability": "view",
      "type": "function",
      "constant": true
    },
    {
      "inputs": [],
      "name": "renounceOwnership",
      "outputs": [],
      "stateMutability": "nonpayable",
      "type": "function"
    },
    {
      "inputs": [
        {
          "internalType": "address",
          "name": "newOwner",
          "type": "address"
        }
      ],
      "name": "transferOwnership",
      "outputs": [],
      "stateMutability": "nonpayable",
      "type": "function"
    },
    {
      "inputs": [
        {
          "internalType": "address",
          "name": "_addr",
          "type": "address"
        }
      ],
      "name": "addAddress",
      "outputs": [],
      "stateMutability": "nonpayable",
      "type": "function"
    },
    {
      "inputs": [
        {
          "internalType": "address[]",
          "name": "_addresses",
          "type": "address[]"
        }
      ],
      "name": "addAddressArray",
      "outputs": [],
      "stateMutability": "nonpayable",
      "type": "function"
    },
    {
      "inputs": [
        {
          "internalType": "address",
          "name": "_addy",
          "type": "address"
        }
      ],
      "name": "removeAddress",
      "outputs": [],
      "stateMutability": "nonpayable",
      "type": "function"
    },
    {
      "inputs": [
        {
          "internalType": "address",
          "name": "_addy",
          "type": "address"
        }
      ],
      "name": "verifyUser",
      "outputs": [
        {
          "internalType": "string",
          "name": "",
          "type": "string"
        }
      ],
      "stateMutability": "view",
      "type": "function",
      "constant": true
    }
  ],
  "bytecode": "0x608060405234801561001057600080fd5b5061002d61002261003260201b60201c565b61003a60201b60201c565b6100fe565b600033905090565b60008060009054906101000a900473ffffffffffffffffffffffffffffffffffffffff169050816000806101000a81548173ffffffffffffffffffffffffffffffffffffffff021916908373ffffffffffffffffffffffffffffffffffffffff1602179055508173ffffffffffffffffffffffffffffffffffffffff168173ffffffffffffffffffffffffffffffffffffffff167f8be0079c531659141344cd1fd0a4f28419497f9722a3daafe3b4186f6b6457e060405160405180910390a35050565b610c458061010d6000396000f3fe608060405234801561001057600080fd5b506004361061007d5760003560e01c8063715018a61161005b578063715018a6146100ea5780638b7beb04146100f45780638da5cb5b14610110578063f2fde38b1461012e5761007d565b806338eada1c146100825780634ba79dfe1461009e5780634d813120146100ba575b600080fd5b61009c600480360381019061009791906107bd565b61014a565b005b6100b860048036038101906100b391906107bd565b610220565b005b6100d460048036038101906100cf91906107bd565b6102f7565b6040516100e19190610883565b60405180910390f35b6100f26103c6565b005b61010e600480360381019061010991906109ed565b61044e565b005b61011861055e565b6040516101259190610a45565b60405180910390f35b610148600480360381019061014391906107bd565b610587565b005b61015261067f565b73ffffffffffffffffffffffffffffffffffffffff1661017061055e565b73ffffffffffffffffffffffffffffffffffffffff16146101c6576040517f08c379a00000000000000000000000000000000000000000000000000000000081526004016101bd90610aac565b60405180910390fd5b60018060008373ffffffffffffffffffffffffffffffffffffffff1673ffffffffffffffffffffffffffffffffffffffff16815260200190815260200160002060006101000a81548160ff02191690831515021790555050565b61022861067f565b73ffffffffffffffffffffffffffffffffffffffff1661024661055e565b73ffffffffffffffffffffffffffffffffffffffff161461029c576040517f08c379a000000000000000000000000000000000000000000000000000000000815260040161029390610aac565b60405180910390fd5b6000600160008373ffffffffffffffffffffffffffffffffffffffff1673ffffffffffffffffffffffffffffffffffffffff16815260200190815260200160002060006101000a81548160ff02191690831515021790555050565b6060600160008373ffffffffffffffffffffffffffffffffffffffff1673ffffffffffffffffffffffffffffffffffffffff16815260200190815260200160002060009054906101000a900460ff1615610388576040518060400160405280601381526020017f596f75206172652077686974656c69737465640000000000000000000000000081525090506103c1565b6040518060400160405280601781526020017f596f7520617265206e6f742077686974656c697374656400000000000000000081525090505b919050565b6103ce61067f565b73ffffffffffffffffffffffffffffffffffffffff166103ec61055e565b73ffffffffffffffffffffffffffffffffffffffff1614610442576040517f08c379a000000000000000000000000000000000000000000000000000000000815260040161043990610aac565b60405180910390fd5b61044c6000610687565b565b61045661067f565b73ffffffffffffffffffffffffffffffffffffffff1661047461055e565b73ffffffffffffffffffffffffffffffffffffffff16146104ca576040517f08c379a00000000000000000000000000000000000000000000000000000000081526004016104c190610aac565b60405180910390fd5b60005b815181101561055a5760018060008484815181106104ee576104ed610acc565b5b602002602001015173ffffffffffffffffffffffffffffffffffffffff1673ffffffffffffffffffffffffffffffffffffffff16815260200190815260200160002060006101000a81548160ff021916908315150217905550808061055290610b34565b9150506104cd565b5050565b60008060009054906101000a900473ffffffffffffffffffffffffffffffffffffffff16905090565b61058f61067f565b73ffffffffffffffffffffffffffffffffffffffff166105ad61055e565b73ffffffffffffffffffffffffffffffffffffffff1614610603576040517f08c379a00000000000000000000000000000000000000000000000000000000081526004016105fa90610aac565b60405180910390fd5b600073ffffffffffffffffffffffffffffffffffffffff168173ffffffffffffffffffffffffffffffffffffffff161415610673576040517f08c379a000000000000000000000000000000000000000000000000000000000815260040161066a90610bef565b60405180910390fd5b61067c81610687565b50565b600033905090565b60008060009054906101000a900473ffffffffffffffffffffffffffffffffffffffff169050816000806101000a81548173ffffffffffffffffffffffffffffffffffffffff021916908373ffffffffffffffffffffffffffffffffffffffff1602179055508173ffffffffffffffffffffffffffffffffffffffff168173ffffffffffffffffffffffffffffffffffffffff167f8be0079c531659141344cd1fd0a4f28419497f9722a3daafe3b4186f6b6457e060405160405180910390a35050565b6000604051905090565b600080fd5b600080fd5b600073ffffffffffffffffffffffffffffffffffffffff82169050919050565b600061078a8261075f565b9050919050565b61079a8161077f565b81146107a557600080fd5b50565b6000813590506107b781610791565b92915050565b6000602082840312156107d3576107d2610755565b5b60006107e1848285016107a8565b91505092915050565b600081519050919050565b600082825260208201905092915050565b60005b83811015610824578082015181840152602081019050610809565b83811115610833576000848401525b50505050565b6000601f19601f8301169050919050565b6000610855826107ea565b61085f81856107f5565b935061086f818560208601610806565b61087881610839565b840191505092915050565b6000602082019050818103600083015261089d818461084a565b905092915050565b600080fd5b7f4e487b7100000000000000000000000000000000000000000000000000000000600052604160045260246000fd5b6108e282610839565b810181811067ffffffffffffffff82111715610901576109006108aa565b5b80604052505050565b600061091461074b565b905061092082826108d9565b919050565b600067ffffffffffffffff8211156109405761093f6108aa565b5b602082029050602081019050919050565b600080fd5b600061096961096484610925565b61090a565b9050808382526020820190506020840283018581111561098c5761098b610951565b5b835b818110156109b557806109a188826107a8565b84526020840193505060208101905061098e565b5050509392505050565b600082601f8301126109d4576109d36108a5565b5b81356109e4848260208601610956565b91505092915050565b600060208284031215610a0357610a02610755565b5b600082013567ffffffffffffffff811115610a2157610a2061075a565b5b610a2d848285016109bf565b91505092915050565b610a3f8161077f565b82525050565b6000602082019050610a5a6000830184610a36565b92915050565b7f4f776e61626c653a2063616c6c6572206973206e6f7420746865206f776e6572600082015250565b6000610a966020836107f5565b9150610aa182610a60565b602082019050919050565b60006020820190508181036000830152610ac581610a89565b9050919050565b7f4e487b7100000000000000000000000000000000000000000000000000000000600052603260045260246000fd5b7f4e487b7100000000000000000000000000000000000000000000000000000000600052601160045260246000fd5b6000819050919050565b6000610b3f82610b2a565b91507fffffffffffffffffffffffffffffffffffffffffffffffffffffffffffffffff821415610b7257610b71610afb565b5b600182019050919050565b7f4f776e61626c653a206e6577206f776e657220697320746865207a65726f206160008201527f6464726573730000000000000000000000000000000000000000000000000000602082015250565b6000610bd96026836107f5565b9150610be482610b7d565b604082019050919050565b60006020820190508181036000830152610c0881610bcc565b905091905056fea26469706673582212201006baed7da9e50c5525ad95047b6e8681b723b3657f2b32f6c243caba357a6d64736f6c634300080b0033",
  "immutableReferences": {},
  "source": "// SPDX-License-Identifier: MIT\r\npragma solidity ^0.8.0;\r\n\r\nimport \"@openzeppelin/contracts/access/Ownable.sol\";\r\n\r\ncontract Whitelist is Ownable{\r\n    // It keeps track of the address whitelist status\r\n    mapping(address => bool) isWhitelisted;\r\n\r\n    //This modifier can be use in the contract to confirm if the address is whitelisted\r\n    modifier whitelisted(address _addr){\r\n        require(isWhitelisted[_addr], 'You are not whitelisted');\r\n        _;\r\n    }\r\n\r\n    //This is address will be added to the whitelist\r\n    function addAddress(address _addr) external onlyOwner{\r\n        isWhitelisted[_addr] = true;\r\n    }\r\n\r\n    //To add an array of address to be whitelisted\r\n    function addAddressArray(address [] memory _addresses) external onlyOwner{\r\n        for(uint i =0; i<_addresses.length; i++){\r\n            isWhitelisted[_addresses[i]] = true;\r\n        }\r\n    }\r\n\r\n    //This function will be used to remove an address from the whitelist\r\n    function removeAddress(address _addy) external onlyOwner{\r\n        isWhitelisted[_addy] = false;\r\n    }\r\n\r\n    // Verify if the address is whitelisted\r\n    function verifyUser(address _addy) public view returns(string memory){\r\n        if(isWhitelisted[_addy]){\r\n            return 'You are whitelisted';\r\n        }else{\r\n            return 'You are not whitelisted';\r\n        }\r\n        \r\n    }\r\n\r\n}",
  "sourcePath": "C:\\Users\\aadem\\OneDrive\\Desktop\\Solidity-DApp\\whitelistDAPP\\contracts\\whitelist.sol",
  "compiler": {
    "name": "solc",
    "version": "0.8.11+commit.d7f03943.Emscripten.clang"
  },
  "schemaVersion": "3.4.4",
  "updatedAt": "2022-04-06T16:57:06.321Z",
  "networkType": "ethereum",
  "devdoc": {
    "kind": "dev",
    "methods": {
      "owner()": {
        "details": "Returns the address of the current owner."
      },
      "renounceOwnership()": {
        "details": "Leaves the contract without owner. It will not be possible to call `onlyOwner` functions anymore. Can only be called by the current owner. NOTE: Renouncing ownership will leave the contract without an owner, thereby removing any functionality that is only available to the owner."
      },
      "transferOwnership(address)": {
        "details": "Transfers ownership of the contract to a new account (`newOwner`). Can only be called by the current owner."
      }
    },
    "version": 1
  },
  "userdoc": {
    "kind": "user",
    "methods": {},
    "version": 1
  }
}